:100000000C9463000C948B000C948B000C948B006C
:100010000C948B000C948B000C948B000C948B0034
:100020000C948B000C948B000C948B000C948B0024
:100030000C948B000C948B000C948B000C948B0014
:100040000C94BC080C948B000C9442040C941C047B
:100050000C948B000C948B000C948B000C948B00F4
:100060000C947C050C948B00000000080002010039
:100070000003040700000000000000000000000072
:1000800023002600290000000000250028002B0086
:1000900000000000240027002A00040404040404D3
:1000A0000404020202020202030303030303010227
:1000B00004081020408001020408102001020408F6
:1000C00010202C0E4B0911241FBECFEFD8E0DEBF4D
:1000D000CDBF11E0A0E0B1E0E8EAFAE202C005908D
:1000E0000D92AE3AB107D9F723E0AEEAB1E001C014
:1000F0001D92AC37B207E1F710E0C2E6D0E004C0D1
:100100002197FE010E941C10C136D107C9F70E9439
:1001100053090C9447150C9400000895CF92DF9278
:10012000EF92FF920F931F93CF93DF936C017A01AD
:100130008B01C0E0D0E0CE15DF0589F0D8016D91CC
:100140008D01D601ED91FC910190F081E02DC60169
:100150000995892B11F47E0102C02196ECCFC701CD
:10016000DF91CF911F910F91FF90EF90DF90CF9093
:100170000895FC01918D828D981761F0828DDF01C9
:10018000A80FB11D5D968C91928D9F5F9F73928F8A
:1001900090E008958FEF9FEF0895FC01918D828D7F
:1001A000981731F0828DE80FF11D858D90E008954C
:1001B0008FEF9FEF0895FC01918D228D892F90E0A4
:1001C000805C9F4F821B91098F739927089582E469
:1001D00092E00E94DB0021E0892B09F420E0822FCD
:1001E0000895FC01848DDF01A80FB11DA35ABF4FF4
:1001F0002C91848D90E001968F739927848FA68926
:10020000B7892C93A089B1898C9180648C93938D4C
:10021000848D981306C00288F389E02D80818F7D3C
:1002200080830895EF92FF920F931F93CF93DF93F4
:10023000EC0181E0888F9B8D8C8D981305C0E88937
:10024000F989808185FD24C0F62E0B8D10E00F5FAB
:100250001F4F0F731127E02E8C8DE8120CC00FB6C4
:1002600007FCFACFE889F989808185FFF5CFCE01B7
:100270000E94F100F1CF8B8DFE01E80FF11DE35AD2
:10028000FF4FF0820B8FEA89FB898081806207C073
:10029000EE89FF896083E889F989808180648083A1
:1002A00081E090E0DF91CF911F910F91FF90EF904F
:1002B0000895CF93DF93EC01888D8823C9F0EA89F4
:1002C000FB89808185FD05C0A889B9898C9186FD4F
:1002D0000FC00FB607FCF5CF808185FFF2CFA8894C
:1002E000B9898C9185FFEDCFCE010E94F100E7CF57
:1002F000DF91CF91089580E090E0892B29F00E9452
:10030000E70081110C9400000895089581E090E0C9
:100310003091410220914002321710F480E090E0C9
:1003200091958195910908958091410290914002A3
:10033000891730F48F5F8093410280E090E0089548
:100340008FEF9FEF08958091400290E0209141024D
:10035000821B9109089585ED8093BC008091BC00BB
:1003600084FDFCCF10923D0208954091D001262FCC
:1003700030E0240F311D21323105DCF420913D02A3
:100380002430C9F4FC0180E090E0861758F43091E5
:10039000D0012191DC01A255BE4FA30FB11D2C93BA
:1003A0000196F3CF8091D001680F6093D00180E077
:1003B000089581E0089582E00895CF92DF92EF9250
:1003C000FF920F931F93CF93DF937C01262F972FDC
:1003D0008A0180911902882391F0C62FD72F6E01D0
:1003E000C40ED51ECC15DD0571F06991D701ED91D4
:1003F000FC910190F081E02DC7010995F3CF642FA6
:10040000822F0E94B501C801DF91CF911F910F91FA
:10041000FF90EF90DF90CF900895CF93DF931F92DE
:10042000CDB7DEB76983209119022223D1F0209144
:100430003E02203240F021E030E0FC013383228391
:1004400080E090E015C080913F02E82FF0E0E65E8A
:10045000FD4F998190838F5F80933F0280933E028E
:1004600005C061E0CE0101960E94B50181E090E0F7
:100470000F90DF91CF9108956115710579F0FB011F
:1004800001900020E9F73197AF01461B570BDC01C3
:10049000ED91FC910280F381E02D099480E090E0E1
:1004A0000895EF92FF920F931F93CF93DF93EC0188
:1004B0007B018A0188819981009729F02A813B81FB
:1004C00024173507F8F4B8016F5F7F4F0E946E1252
:1004D000009759F0998388831B830A832C813D817F
:1004E000232B81F4FC0110820DC088819981009733
:1004F00011F00E94D611198218821D821C821B8263
:100500001A8207C01D830C83B701888199810E94DC
:100510004F13CE01DF91CF911F910F91FF90EF907C
:100520000895FC01808191810C94D611EF92FF9285
:100530000F931F93CF93DF93CDB7DEB762970FB6BC
:10054000F894DEBF0FBECDBF8C01CB01F801118244
:100550001082138212821582148250E09E012F5F56
:100560003F4F7901B9010E947D13F70101900020EE
:10057000E9F73197AF014E195F09B701C8010E9431
:10058000510262960FB6F894DEBF0FBECDBFDF9169
:10059000CF911F910F91FF90EF900895FB01DC0127
:1005A00011961C921E9213961C921E9212971596EB
:1005B0001C921E9214978617970749F060817181EB
:1005C0006115710521F0448155810C945102089503
:1005D0004F925F926F927F92EF92FF920F931F93D1
:1005E000CF93DF93CDB7DEB7A1970FB6F894DEBFF8
:1005F0000FBECDBF7C01FA01CB0119A2223008F455
:100600002AE08E010F5D1F4F422E512C612C712C60
:10061000BF01A30192010E94C70FF901CA01015055
:1006200011096A3014F4605D01C0695CD8016C93F3
:10063000232B242B252B61F7B801C7010E943C0214
:10064000A1960FB6F894DEBF0FBECDBFDF91CF915C
:100650001F910F91FF90EF907F906F905F904F9060
:100660000895DC01ED91FC910190F081E02D099459
:100670004F925F926F927F928F929F92AF92BF92B2
:10068000CF92DF92EF92FF92CF93DF93EC016A015A
:100690007B01B22E9A01AB01C701B6010E943C1149
:1006A000882319F066E371E027C026013701E8943A
:1006B00077F82FEF3FEF4FE75FE7C301B2010E94EA
:1006C0003C1181110DC02FEF3FEF4FE75FE7C301F2
:1006D000B2010E94D21318161CF46AE371E00CC038
:1006E0002FEF3FEF4FE75FE4C701B6010E943711DC
:1006F00018169CF46EE371E0CE01DF91CF91FF906C
:10070000EF90DF90CF90BF90AF909F908F907F90B1
:100710006F905F904F900C943C022FEF3FEF4FE7AC
:100720005FECC701B6010E94D21387FDE3CF20E042
:1007300030E0A901C701B6010E94D21387FF0AC0A9
:100740006DE2CE010E9431034C01F7FAF094F7F804
:10075000F09402C0812C912CA12C60E070E080E02C
:100760009FE3AB1441F020E030E040E251E40E940E
:100770008F10A394F6CF9B01AC01C701B6010E9474
:1007800023102B013C010E9408116B017C010E9487
:10079000D7139B01AC01C301B2010E9422102B01AF
:1007A0003C012AE0B701A601CE010E94E8027C01CB
:1007B000E80CF91CBB2031F06EE2CE010E9431033F
:1007C000E80EF91EDB2CDD2029F120E030E040E2CC
:1007D00051E4C301B2010E9438142B013C010E9474
:1007E00008114B01A12CB12C2AE0B501A401CE01C6
:1007F0000E94E802E80EF91EC501B4010E94D71359
:100800009B01AC01C301B2010E9422102B013C01EB
:10081000DA94D9CFC701DF91CF91FF90EF90DF90AD
:10082000CF90BF90AF909F908F907F906F905F9090
:100830004F9008950C943C021F920F920FB60F92A6
:1008400011242F933F934F935F936F937F938F93D5
:100850009F93AF93BF93EF93FF9382E492E00E9444
:10086000F100FF91EF91BF91AF919F918F917F9197
:100870006F915F914F913F912F910F900FBE0F900D
:100880001F9018951F920F920FB60F9211242F935D
:100890008F939F93EF93FF93E0915202F091530255
:1008A0008081E0915802F091590282FD12C090813E
:1008B00080915B028F5F8F7320915C02821751F0F1
:1008C000E0915B02F0E0EE5BFD4F958F80935B0261
:1008D00001C08081FF91EF919F918F912F910F9097
:1008E0000FBE0F901F901895CF93FC01C48121E09B
:1008F00020931902C0933A0210923F0210923E02D6
:100900008385682B8FED92E00E940D0280913E025C
:10091000813208F046C090913D029111FCCF92E0E7
:1009200090933D0291E090933C029FEF90931802C8
:100930001092170280931602AAE1B2E026EF31E08E
:10094000F9019E2F921B981718F49D919193F9CF5E
:100950001092F5018091F501CC0FC82BC093F501E1
:1009600080913B02813061F410923B028091F5014D
:100970008093BB008091BC0083FDF8CF85EC01C063
:1009800085EE8093BC0080913D028230E1F380913E
:1009900018028F3F31F080911802803211F080915F
:1009A000180210923F0210923E0210921902CF914B
:1009B00008950F931F93CF938C01C62F0E94740448
:1009C0006C2F6460C8010E9474046C2F6B7FC80197
:1009D0000E94740483EC90E00197F1F7CF911F918E
:1009E0000F910895FF920F931F93CF93DF931F9260
:1009F000CDB7DEB78C01F62E962F907F692F642B32
:100A0000C80149830E94D90480E1F89EB0011124F5
:100A10004981642BC8010F90DF91CF911F910F91F5
:100A2000FF900C94D90441E00E94F20481E090E030
:100A30000895CF93DF93CDB7DEB728970FB6F8941C
:100A4000DEBF0FBECDBF9C0188E0E6E0F1E0DE0135
:100A5000119601900D928A95E1F7F901808584172E
:100A600010F44FEF480FFE013196E40FF11DE40F33
:100A7000F11D9081690F606840E0C90128960FB6AA
:100A8000F894DEBF0FBECDBFDF91CF910C94F2047E
:100A90000F931F93CF93DF93FC0124892223B1F09E
:100AA000EC0110821182128213820E947608088162
:100AB00019812A813B81DC01CB01801B910BA20BA8
:100AC000B30B8C839D83AE83BF831C8ADF91CF9150
:100AD0001F910F910895CF93DF93EC0161E088811E
:100AE0000E94F00783E290E00197F1F760E08881CF
:100AF000DF91CF910C94F0071F920F920FB60F92D7
:100B000011242F933F934F935F936F937F938F9312
:100B10009F93AF93BF93EF93FF938091B900887F2A
:100B2000803609F49CC068F5883209F45BC090F403
:100B3000803109F454C038F4882309F4F6C08830B1
:100B400009F44DC0F6C0883109F44CC0803209F474
:100B50005DC0EFC0803409F468C048F4803309F404
:100B600055C0883309F0E5C080931802D8C080359D
:100B700009F44FC0883509F45DC0883409F0D9C044
:100B8000D6C0883909F4C7C0A8F4883709F467C00B
:100B900038F4883609F463C0803709F460C0C9C0EE
:100BA000883809F4B8C0803909F45FC0803809F08A
:100BB000C0C05BC0803B09F486C038F4803A09F4B9
:100BC00066C0883A09F47FC0B4C0803C09F4A7C06D
:100BD000883C09F4A4C0883B09F48AC0AAC080916B
:100BE000F50110C09091170280911602981770F5C8
:100BF000E091170281E08E0F80931702F0E0EA5037
:100C0000FE4F80818093BB0085EC86C080931802E4
:100C10008EC0E091170281E08E0F809317028091C1
:100C2000BB00F0E0EA50FE4F808390911702809164
:100C300016026EC0E091170281E08E0F80931702BA
:100C40008091BB00F0E0EA50FE4F808380913C022F
:100C500081116DC081E080933B0284EA61C083E032
:100C600080933D021092F401CFCF8091F401803245
:100C700008F051C0E091F40181E08E0F8093F401FF
:100C80008091BB00F0E0EC52FE4F8083BDCF85EC3D
:100C90008093BC0010923D028091F401803230F4C8
:100CA000E091F401F0E0EC52FE4F10826091F4010B
:100CB00070E0E091D201F091D30184ED91E00995CB
:100CC0001092F40136C084E080933D021092D1016D
:100CD0001092D001E091CE01F091CF010995809161
:100CE000D001811105C081E08093D0011092AE0146
:100CF000E091D10181E08E0F8093D101F0E0E255C7
:100D0000FE4F80818093BB009091D1018091D001F2
:100D1000981708F479CF85E88093BC000AC085EC69
:100D20008093BC0010923D0204C0109218020E94F1
:100D3000AB01FF91EF91BF91AF919F918F917F9107
:100D40006F915F914F913F912F910F900FBE0F9038
:100D50001F9018950E9438130F931F93CF93DF9322
:100D60008C01EB01FC01808191810097B1F06881D9
:100D700079816115710579F0428153812C813D8122
:100D80004217530740F00E944F138C819D81F80158
:100D90009583848313C00E94D61188819981F801BC
:100DA000918380838A819B81938382838C819D81BF
:100DB00095838483198218821B821A821D821C8269
:100DC000DF91CF911F910F9108953FB7F8948091D3
:100DD000740390917503A0917603B091770326B5C3
:100DE000A89B05C02F3F19F00196A11DB11D3FBF63
:100DF000BA2FA92F982F8827820F911DA11DB11DF1
:100E0000BC01CD0142E0660F771F881F991F4A95EC
:100E1000D1F70895CF92DF92EF92FF920F931F9335
:100E2000CF93DF936B01770FEE08FF08F7FE1BC02F
:100E3000EC016DE20E9431038C0144275527BA0171
:100E40004C195D096E097F092AE0CE010E94E80273
:100E5000800F911FDF91CF911F910F91FF90EF9025
:100E6000DF90CF9008952AE0B701A601DF91CF91DE
:100E70001F910F91FF90EF90DF90CF900C94E802BC
:100E8000CF93DF93C0912D03D0912E03FE013296B4
:100E90009E01265D3F4FDF0180E090E04D915D9126
:100EA000840F951FA217B307C9F764E170E00E9491
:100EB000B30FAB017DA76CA71BA61AA660E070E07C
:100EC00083E690E0C191D191DE01A41BB50BA81778
:100ED000B90714F4BE01CD01E217F30799F7072E05
:100EE000000C880B990B0E94D9139B01AC016091F7
:100EF0001F037091200380912103909122030E948F
:100F000022100E940111072E000C880B990B0E94E1
:100F1000D913209127033091280340912903509140
:100F20002A030E948F1020E030E048EC52E40E9437
:100F3000381460931B0370931C0380931D039093DC
:100F40001E0340E06EE080912F03909130030E94D9
:100F5000190560911B0370911C0380911D039091F2
:100F60001E030E94011180912F03909130030E9473
:100F70000A0762E771E080912F0390913003DF91BF
:100F8000CF910C941A040F931F9390E0FC01E2554B
:100F9000FF4F6491FC01E656FF4FE491F0E0EE0F45
:100FA000FF1FE458FF4F8591949100E412E42FE075
:100FB00030E0462F0E9406096115710581059105F3
:100FC00049F0DC01CB010196A11DB11DBC01CD0191
:100FD0009F7003C060E070E0CB011F910F910895F6
:100FE00090E0FC01E859FF4F3491FC01E255FF4FBE
:100FF0002491FC01E656FF4FE491EE2309F43BC037
:10100000332339F1333091F038F43130A9F03230F4
:1010100001F584B58F7D12C0373091F03830A1F0E2
:101020003430B9F4809180008F7D03C080918000BE
:101030008F77809380000DC084B58F7784BD09C001
:101040008091B0008F7703C08091B0008F7D809336
:10105000B000F0E0EE0FFF1FEA57FF4FA591B491EB
:101060008FB7F894EC91611103C020952E2301C035
:101070002E2B2C938FBF08958F929F92AF92BF9289
:10108000CF92DF92EF92FF926B017C010E94E50606
:101090004B015C01C114D104E104F104F1F00E94A0
:1010A000E506DC01CB0188199909AA09BB09883E2C
:1010B0009340A105B10570F321E0C21AD108E108FF
:1010C000F10888EE880E83E0981EA11CB11CC114A3
:1010D000D104E104F10419F7DDCFFF90EF90DF9028
:1010E000CF90BF90AF909F908F9008952FB7F894B6
:1010F00060917003709171038091720390917303FA
:101100002FBF08950F931F930E94760860934A02A1
:1011100070934B0280934C0290934D02E0914202F7
:10112000F09143020084F185E02D82E492E009957C
:1011300097FF1FC00E94760800914A0210914B024F
:1011400020914C0230914D02DC01CB01801B910BB0
:10115000A20BB30B00914602109147022091480266
:101160003091490280179107A207B307B8F28FEFB9
:101170009FEF1F910F9108951F920F920FB60F923C
:1011800011242F933F938F939F93AF93BF9380919D
:10119000700390917103A0917203B0917303309129
:1011A0006F0323E0230F2D3720F40196A11DB11DFD
:1011B00005C026E8230F0296A11DB11D20936F03E1
:1011C0008093700390937103A0937203B0937303A1
:1011D0008091740390917503A0917603B091770389
:1011E0000196A11DB11D8093740390937503A09384
:1011F0007603B0937703BF91AF919F918F913F9109
:101200002F910F900FBE0F901F901895CF92DF92E5
:10121000EF92FF920F931F93E82FF92F05C0015013
:1012200011092109310961F1908196239417B9F3CD
:1012300005C0015011092109310911F1908196234E
:101240009413F7CFC12CD12CE12CF12C0AC08FEFD5
:10125000C81AD80AE80AF80A0C151D052E053F051C
:1012600079F080818623841791F36C2D7D2D8E2D4E
:101270009F2D1F910F91FF90EF90DF90CF900895D9
:1012800060E070E080E090E01F910F91FF90EF90A0
:10129000DF90CF90089580E193E00E9491028AE070
:1012A00093E00C949102CF93DF93CDB7DEB72A97EA
:1012B0000FB6F894DEBF0FBECDBF789484B58260C0
:1012C00084BD84B5816084BD85B5826085BD85B5EA
:1012D000816085BD80916E00816080936E00109268
:1012E00081008091810082608093810080918100E3
:1012F0008160809381008091800081608093800074
:101300008091B10084608093B1008091B0008160D1
:101310008093B00080917A00846080937A008091FD
:101320007A00826080937A0080917A008160809355
:101330007A0080917A00806880937A001092C100D0
:10134000109241021092400210923F0210923E020F
:1013500010923D0281E080933C0210923B0261E0DA
:1013600082E10E94F00761E083E10E94F007809132
:10137000B9008E7F8093B9008091B9008D7F8093F2
:10138000B90088E48093B80085E48093BC00109293
:10139000640380916903823018F098E090936403AD
:1013A0008093670362E370E080E090E00E943C0875
:1013B00060916A038FE593E00E94740468EE73E025
:1013C00080E090E00E943C0860E38FE593E00E949B
:1013D000D9040BE416E4C8010197F1F760E38FE547
:1013E00093E00E94D904C8010197F1F760E38FE50B
:1013F00093E00E94D90483E592E00197F1F760E25F
:101400008FE593E00E94D90460916403606240E03C
:101410008FE593E00E94F20484E08093650340E04E
:101420006CE08FE593E00E94F20440E061E08FE51C
:1014300093E00E94F2040BE31FE1C8010197F1F76A
:1014400082E08093660340E066E08FE593E00E94CF
:10145000F20440E062E08FE593E00E94F204C801EC
:101460000197F1F788E080936A0360E08FE593E0ED
:101470000E94740462E471E08FE593E00E941A0414
:10148000F3E3CF2EF3E0DF2EE12CF12C809131033A
:10149000909132030E946B0500915B0310915C03F5
:1014A000E0913103F091320382810E94C307000F63
:1014B000111F0D5C1C4F0E94D91326E933E44BE841
:1014C0005CE30E9438140E940111F801718360836B
:1014D00080915B0390915C03019690935C038093F1
:1014E0005B0341E060E08FE593E00E94190564E54D
:1014F00071E08FE593E00E941A04B7018FE593E055
:101500000E940A0760E671E08FE593E00E941A04EA
:10151000F601619171916F018FE593E00E940A07D6
:10152000FFEFEF1AFF0A44E1E416F10409F0AECF31
:101530000E94400742E060E08FE593E00E941905B9
:1015400063E671E08FE593E00E941A0460911B034B
:1015500070911C0380911D0390911E030E94011144
:101560008FE593E00E940A0762E771E08FE593E060
:101570000E941A0443E060E08FE593E00E941905A1
:1015800064E771E08FE593E00E941A0464EF71E074
:1015900080E090E00E943C0840E061E08FE593E04D
:1015A0000E94F2048BE39FE10197F1F740E060E0D5
:1015B0008FE593E00E94190563E671E08FE593E003
:1015C0000E941A0460911B0370911C0380911D03FB
:1015D00090911E030E9401118FE593E00E940A077B
:1015E00062E771E08FE593E00E941A0441E060E059
:1015F0008FE593E00E94190566E871E08FE593E0BE
:101600000E941A0442E060E08FE593E00E94190511
:101610006EE871E08FE593E00E941A0442E066E014
:101620008FE593E00E9419056BEE72E08FE593E081
:101630000E941A0443E06DE08FE593E00E941905D3
:10164000E091F602F091F7026481758186819781BD
:1016500028EE33E040E050E00E94E90FCA01B901F2
:101660000E94D9132091FE023091FF0240910003A5
:10167000509101030E943814AB01BC014093FA025F
:101680005093FB026093FC027093FD0222E08FE511
:1016900093E00E94380380911803882341F060E0B2
:1016A000809119030E94F00781E080931803E09174
:1016B0005202F091530282E08083E0914E02F09159
:1016C0004F021082E0915002F09151028FEC808322
:1016D00010925A02E0915602F091570286E0808300
:1016E000E0915402F0915502808180618083E09105
:1016F0005402F0915502808188608083E091540209
:10170000F0915502808180688083E0915402F091CD
:10171000550280818F7D80835CE3852E912CA12CE6
:10172000B12C68EE462E63E0562E612C712C3324CA
:1017300033942224239480911603882329F08091E6
:101740001703882309F4F8C141E062E08FE593E0D4
:101750000E9419056AE073E0CE0101960E94CE0254
:1017600089819A81009729F00E9456136B017C01B0
:1017700003C0C12CD12C7601CE0101960E949102AA
:101780005AE0C516D104E104F10434F46CE871E0C8
:101790008FE593E00E941A046AE073E0CE0101969F
:1017A0000E94CE024D815E8169817A818FE593E04E
:1017B0000E948E00CE0101960E94910241E064E0F9
:1017C0008FE593E00E94190563E971E08FE593E0EE
:1017D0000E941A0460E173E0CE0101960E94CE02DD
:1017E00089819A81009729F00E9456136B017C0130
:1017F00003C0C12CD12C7601CE0101960E9491022A
:101800008AE0C816D104E104F10434F46CE871E014
:101810008FE593E00E941A0460E173E0CE01019627
:101820000E94CE024D815E8169817A818FE593E0CD
:101830000E948E00CE0101960E94910204E110E008
:1018400080913103909132030E946B05E0905B031D
:10185000F0905C03E0913103F091320382810E94A9
:10186000C3079701220F331FF901ED5CFC4F7F0185
:101870000E94D91326E933E44BE85CE30E94381454
:101880000E940111F7017183608380915B03909145
:101890005C03019690935C0380935B0301501109F4
:1018A00079F60E944007E091F802F091F902608118
:1018B0007181828193810E9401117B0165E971E050
:1018C0008BEE92E00E944613892BB1F1F4E1EF1602
:1018D000F10494F56BE971E08BEE92E00E944F13F6
:1018E0000091F4021091F502F8018081811106C087
:1018F00061E081810E94F007F80130820091F602D8
:101900001091F702F801848981110CC00E947608B9
:10191000F801608371838283938314821582168217
:101920001782348A0E9476086093F0027093F10265
:101930008093F2029093F30260EA71E08BEE92E002
:101940000E944613892BF1F0F0E6EF16F104D4F073
:1019500066EA71E08BEE92E00E944F130091F40270
:101960001091F502F8018081882331F060E08181D7
:101970000E94F007F80130828091F6029091F70200
:101980000E94480542E066E08FE593E00E94190559
:101990006BEE72E08FE593E00E941A0441E069E08B
:1019A0008FE593E00E941905E091F602F091F702AD
:1019B0006481758186819781A30192010E94E90F5C
:1019C000CA01B9010E94D9132091FE023091FF0291
:1019D00040910003509101030E943814AB01BC01F7
:1019E0004093FA025093FB026093FC027093FD0255
:1019F00022E08FE593E00E9438036BEA71E08FE507
:101A000093E00E941A0482E492E00E94DB00892B9A
:101A100009F48FC00E948208FC0197FD11C08D322D
:101A2000910591F0C0970A9778F0E0914202F09109
:101A300043020680F781E02D82E492E00995EACF27
:101A400080E090E0DC012DC020E030E0A90110E052
:101A5000E130F10509F0DEC0E0914202F09143026D
:101A60000680F781E02D82E492E02F833887498752
:101A70005A8709950E948208FC01C0972F813885FA
:101A800049855A850A9720F3E130F10509F31123BE
:101A900009F4DFC088279927DC01821B930BA40B74
:101AA000B50B8130910529F482E093E00E9448054E
:101AB00040C082309105C9F480911603811139C06C
:101AC0000E947608609302037093030380930403DB
:101AD00090930503109206031092070310920803D7
:101AE000109209032092160324C0039711F58091E8
:101AF00016038823F1F080911703811170C00E94B2
:101B000076080091020310910303209104033091A1
:101B10000503DC01CB01801B910BA20BB30B80935F
:101B2000060390930703A0930803B0930903209240
:101B300017030E947B01FFCD0E94760800910203EB
:101B40001091030320910403309105036B017C0184
:101B5000C01AD10AE20AF30AC0920603D092070320
:101B6000E0920803F0920903C701B60120E63AEEBD
:101B700040E050E00E94E90FCA01B901A5019401BB
:101B80000E94E90F4AE0CE0101960E949602BE0132
:101B90006F5F7F4F8AE093E00E94AC06CE01019612
:101BA0000E949102C701B601A30192010E94E90FB0
:101BB000CA01B901A50194010E94E90F4AE0CE01D2
:101BC00001960E949602BE016F5F7F4F80E193E015
:101BD0000E94AC06CE0101960E949102B5CD0E94F2
:101BE00076080091060310910703209108033091B5
:101BF0000903DC01CB01801B910BA20BB30B80937B
:101C0000020390930303A0930403B093050310927F
:101C100017038FCFED32F105D1F0CF01C0970A97AE
:101C200008F01ACFAAE0B0E00E94F6146F01FF0F8F
:101C3000EE08FF08DC01CB018C0D9D1DAE1DBF1D04
:101C40009C01AD01205331094109510905CF11E033
:101C500003CFDA01C90125CFCF93DF93109245025C
:101C60001092440288EE93E0A0E0B0E08093460238
:101C700090934702A0934802B093490222E131E0D9
:101C8000309343022093420225EC30E030934F0220
:101C900020934E0224EC30E0309351022093500206
:101CA00020EC30E0309353022093520221EC30E0DC
:101CB000309355022093540222EC30E030935702C7
:101CC0002093560226EC30E03093590220935802BC
:101CD00010925B0210925C0210925D0210925E0202
:101CE0001092E2021092E1028093E3029093E402E8
:101CF000A093E502B093E60282E291E09093E002C5
:101D00008093DF0282E090E090936C0380936B03FA
:101D1000E0EBF0E02491ECE9F0E08491882399F085
:101D200090E0880F991FFC01E057FF4FA591B491F7
:101D3000FC01EA57FF4F859194918FB7F894EC918D
:101D4000E22BEC938FBF83E090E090936E0380933F
:101D50006D03E1EBF0E02491EDE9F0E0849188235C
:101D6000C1F090E0880F991FFC01E057FF4FC5912B
:101D7000D491FC01EA57FF4FA591B4919FB7F89415
:101D80003881822F809583238883EC91E22BEC931A
:101D90009FBF109262031092610382E391E09093DF
:101DA000600380935F0387E28093630384E1809301
:101DB000680384E08093690310926A038BE693E0E2
:101DC000909332038093310310925C0310925B0373
:101DD00010925E0310925D0310921B0310921C037D
:101DE00010921D0310921E0321E333E030932E0363
:101DF00020932D0390932C0380932B0380E090E09D
:101E0000A0EAB2E480931F0390932003A0932103E0
:101E1000B093220380E090E0A0E2B1E4809323033A
:101E200090932403A0932503B093260380E090E0D1
:101E3000ACE8B2E48093270390932803A09329038E
:101E4000B0932A038FE593E09093300380932F03A0
:101E500085E090E090931A03809319031092180381
:101E600010920B0310920A0310920D0310920C03B0
:101E700010920F0310920E0340E050E062E671E012
:101E80008AE093E00E945102109211031092100315
:101E90001092130310921203109215031092140360
:101EA00040E050E062E671E080E193E00E94510280
:101EB0001092060310920703109208031092090370
:101EC0001092020310920303109204031092050370
:101ED00040E050E062E671E08AE093E00E94510247
:101EE00040E050E062E671E080E193E00E94510240
:101EF000109216031092170388E193E09093F50275
:101F00008093F40266EA71E08BEE92E00E944F1338
:101F10001092F0021092F1021092F2021092F3026B
:101F200082E093E09093F7028093F6028BE193E0D6
:101F30009093F9028093F8021092FA021092FB0239
:101F40001092FC021092FD028AE097EDA3E2BEE33C
:101F50008093FE029093FF02A0930003B0930103CD
:101F6000DF91CF91089597FB072E16F4009407D0C8
:101F700077FD09D00E94081007FC05D03EF490952B
:101F800081959F4F0895709561957F4F0895A1E2C7
:101F90001A2EAA1BBB1BFD010DC0AA1FBB1FEE1FE3
:101FA000FF1FA217B307E407F50720F0A21BB30B2E
:101FB000E40BF50B661F771F881F991F1A9469F7AA
:101FC00060957095809590959B01AC01BD01CF0106
:101FD0000895052E97FB1EF400940E94001057FDF3
:101FE00007D00E94C70F07FC03D04EF40C940010DA
:101FF00050954095309521953F4F4F4F5F4F089535
:1020000090958095709561957F4F8F4F9F4F089564
:10201000AA1BBB1B51E107C0AA1FBB1FA617B7070E
:1020200010F0A61BB70B881F991F5A95A9F780952A
:102030009095BC01CD010895EE0FFF1F0590F4911E
:10204000E02D09945058BB27AA270E943A100C94FF
:10205000BC140E94AE1438F00E94B51420F039F47C
:102060009F3F19F426F40C94AB140EF4E095E7FBB3
:102070000C94A514E92F0E94CD1458F3BA176207E7
:1020800073078407950720F079F4A6F50C94EF14F4
:102090000EF4E0950B2EBA2FA02D0B01B901900183
:1020A0000C01CA01A0011124FF27591B99F0593FC7
:1020B00050F4503E68F11A16F040A22F232F342F0F
:1020C0004427585FF3CF469537952795A795F0405D
:1020D0005395C9F77EF41F16BA0B620B730B840B72
:1020E000BAF09150A1F0FF0FBB1F661F771F881F2A
:1020F000C2F70EC0BA0F621F731F841F48F4879582
:1021000077956795B795F7959E3F08F0B0CF939573
:10211000880F08F09927EE0F9795879508950E94EC
:10212000A3100C94BC140E94B51458F00E94AE1475
:1021300040F029F45F3F29F00C94A51451110C9440
:10214000F0140C94AB140E94CD1468F39923B1F3EE
:10215000552391F3951B550BBB27AA2762177307CD
:10216000840738F09F5F5F4F220F331F441FAA1F61
:10217000A9F335D00E2E3AF0E0E832D0915050401D
:10218000E695001CCAF72BD0FE2F29D0660F771FCB
:10219000881FBB1F261737074807AB07B0E809F0B1
:1021A000BB0B802DBF01FF2793585F4F3AF09E3F36
:1021B000510578F00C94A5140C94F0145F3FE4F3EF
:1021C000983ED4F3869577956795B795F7959F5F79
:1021D000C9F7880F911D9695879597F90895E1E0C5
:1021E000660F771F881FBB1F621773078407BA0724
:1021F00020F0621B730B840BBA0BEE1F88F7E0957F
:1022000008950E9408116894B1110C94F014089577
:102210000E94D51488F09F5798F0B92F9927B7518D
:10222000B0F0E1F0660F771F881F991F1AF0BA957A
:10223000C9F714C0B13091F00E94EF14B1E00895D5
:102240000C94EF14672F782F8827B85F39F0B93FC7
:10225000CCF3869577956795B395D9F73EF490952D
:102260008095709561957F4F8F4F9F4F08950E9485
:10227000141408F48FEF08950E941414880B990B1E
:102280000895CF93DF938230910510F482E090E0BF
:10229000E0917A03F0917B0320E030E0C0E0D0E0F1
:1022A000309711F14081518148175907C0F0481704
:1022B000590761F482819381209719F09B838A8367
:1022C0002BC090937B0380937A0326C021153105A0
:1022D00019F04217530718F49A01BE01DF01EF010C
:1022E0000280F381E02DDCCF2115310509F1281B97
:1022F000390B2430310590F412968D919C911397EF
:102300006115710521F0FB019383828304C09093D2
:102310007B0380937A03FD01329644C0FD01E20FF6
:10232000F31F81939193225031092D933C933AC02E
:102330002091780330917903232B41F420910201FD
:1023400030910301309379032093780320910001A9
:10235000309101012115310541F42DB73EB740916F
:10236000040150910501241B350BE0917803F09195
:102370007903E217F307A0F42E1B3F0B2817390748
:1023800078F0AC014E5F5F4F2417350748F04E0FD1
:102390005F1F50937903409378038193919302C018
:1023A000E0E0F0E0CF01DF91CF9108950F931F930C
:1023B000CF93DF93009709F48CC0FC01329713820E
:1023C000128200917A0310917B030115110581F4AB
:1023D00020813181820F931F2091780330917903FE
:1023E0002817390779F5F0937903E093780371C0E2
:1023F000D80140E050E0AE17BF0750F412962D917F
:102400003C911397AD012115310509F1D901F3CFA5
:102410009D01DA013383228360817181860F971FCA
:102420008217930769F4EC0128813981260F371F41
:102430002E5F3F4F318320838A819B8193838283E8
:10244000452B29F4F0937B03E0937A0342C0139663
:10245000FC93EE931297ED01499159919E01240F3F
:10246000351FE217F30771F480819181840F951F66
:10247000029611969C938E938281938113969C93DE
:102480008E931297E0E0F0E0D80112968D919C9126
:102490001397009719F0F8018C01F6CF8D919C915C
:1024A00098012E5F3F4F820F931F20917803309148
:1024B00079032817390769F4309729F410927B03C0
:1024C00010927A0302C01382128210937903009350
:1024D0007803DF91CF911F910F910895A0E0B0E0B4
:1024E000E4E7F2E10C940515EC01009721F4CB012F
:1024F0000E944111B8C0FC01E60FF71F9C01225059
:102500003109E217F30708F4ACC0D9010D911C9111
:10251000119706171707B0F00530110508F49FC092
:10252000C80104978617970708F499C0025011094B
:10253000061B170B019311936D937C93CF010E949F
:10254000D6118DC05B01A01AB10A4C01800E911EFC
:10255000A0917A03B0917B0340E050E0E12CF12C94
:10256000109709F44AC0A815B905D1F56D907C9073
:102570001197630182E0C80ED11CCA14DB0480F1FC
:10258000A3014A195B096A0182E0C80ED11C1296A8
:10259000BC9012971396AC91B5E0CB16D10440F0E5
:1025A000B282A38351834083D9016D937C930AC087
:1025B0000E5F1F4FC301800F911FF901918380832C
:1025C000EB2DFA2FE114F10431F0D7011396FC93AF
:1025D000EE93129744C0F0937B03E0937A033FC0DD
:1025E0008D919C9111974817590708F4AC017D0112
:1025F00012960D90BC91A02DB3CF8091780390914D
:10260000790388159905E1F446175707C8F48091B6
:10261000000190910101009741F48DB79EB7409160
:10262000040150910501841B950BE817F907C8F4C4
:10263000F0937903E0937803F901718360830FC00D
:10264000CB010E9441117C01009759F0A801BE0105
:102650000E943D13CE010E94D611C70104C0CE01D5
:1026600002C080E090E0CDB7DEB7EEE00C9421151B
:1026700081E090E0F8940C944715FB01DC0102C066
:1026800001900D9241505040D8F70895FB01DC01B4
:102690008D91019080190110D9F3990B0895FB01D8
:1026A000DC0101900D920020E1F708951F93FC01D9
:1026B00099278827BC01E89411911032E9F3193069
:1026C00010F01E30C8F31B3251F01D3249F46894EB
:1026D00006C00E949313610F711D811D911D119100
:1026E00010531A30B0F33EF4909580957095619533
:1026F0007F4F8F4F9F4F1F9108954532510520F412
:10270000423010F00C948813FB011082CB01089525
:10271000BB274A3031F4992322F4BDE2909581958C
:102720009F4F0C94A913592F482F372F262F660F30
:10273000771F881F991F660F771F881F991F620FC9
:10274000731F841F951F660F771F881F991F089599
:10275000BB27FB015527AA27880F991FAA1FA4177B
:1027600010F0A41B83955051B9F7A05DAA3308F06F
:10277000A95DA193009779F7B111B1931192CB01A3
:102780000C94C213DC01FC01672F71917723E1F7F0
:10279000329704C07C916D9370836291AE17BF072E
:1027A000C8F308950E94141408F481E00895E89491
:1027B00009C097FB3EF490958095709561957F4F89
:1027C0008F4F9F4F9923A9F0F92F96E9BB27939537
:1027D000F695879577956795B795F111F8CFFAF447
:1027E000BB0F11F460FF1BC06F5F7F4F8F4F9F4F78
:1027F00016C0882311F096E911C0772321F09EE8D6
:10280000872F762F05C0662371F096E8862F70E03B
:1028100060E02AF09A95660F771F881FDAF7880F15
:102820009695879597F90895990F0008550FAA0B6B
:10283000E0E8FEEF16161706E807F907C0F01216D3
:102840001306E407F50798F0621B730B840B950BD6
:1028500039F40A2661F0232B242B252B21F408952B
:102860000A2609F4A140A6958FEF811D811D0895C8
:102870000E944B140C94BC140E94AE1438F00E94B9
:10288000B51420F0952311F00C94A5140C94AB14FE
:1028900011240C94F0140E94CD1470F3959FC1F391
:1028A000950F50E0551F629FF001729FBB27F00DFE
:1028B000B11D639FAA27F00DB11DAA1F649F662753
:1028C000B00DA11D661F829F2227B00DA11D621FA2
:1028D000739FB00DA11D621F839FA00D611D221F5C
:1028E000749F3327A00D611D231F849F600D211D40
:1028F000822F762F6A2F11249F5750409AF0F1F0C3
:1029000088234AF0EE0FFF1FBB1F661F771F881F2B
:1029100091505040A9F79E3F510580F00C94A514AA
:102920000C94F0145F3FE4F3983ED4F386957795CA
:102930006795B795F795E7959F5FC1F7FE2B880FD1
:10294000911D9695879597F9089597F99F6780E867
:1029500070E060E008959FEF80EC089500240A94F1
:102960001616170618060906089500240A9412166A
:102970001306140605060895092E0394000C11F49D
:10298000882352F0BB0F40F4BF2B11F460FF04C04A
:102990006F5F7F4F8F4F9F4F089557FD9058440FA3
:1029A000551F59F05F3F71F04795880F97FB991FAE
:1029B00061F09F3F79F0879508951216130614066B
:1029C000551FF2CF4695F1DF08C0161617061806F8
:1029D000991FF1CF86957105610508940895E894D3
:1029E000BB2766277727CB0197F908950E943815F2
:1029F000A59F900DB49F900DA49F800D911D112453
:102A000008952F923F924F925F926F927F928F9292
:102A10009F92AF92BF92CF92DF92EF92FF920F936D
:102A20001F93CF93DF93CDB7DEB7CA1BDB0B0FB677
:102A3000F894DEBF0FBECDBF09942A883988488834
:102A40005F846E847D848C849B84AA84B984C884CA
:102A5000DF80EE80FD800C811B81AA81B981CE0FC1
:102A6000D11D0FB6F894DEBF0FBECDBFED010895A6
:102A7000A29FB001B39FC001A39F700D811D1124BF
:102A8000911DB29F700D811D1124911D089510E0BC
:102A9000C2E6D0E004C0FE010E941C102196C3369D
:082AA000D107C9F7F894FFCF3C
:102AA80000007C0380000000400014005400000077
:102AB800000012018E00DB00B900CD0059010000B2
:102AC80000000D02DD01A3019401860185010000CB
:102AD800000013058E006E616E00696E66006F76E9
:102AE8006600202020426F6F74696E6720537973E7
:102AF80074656D002020202052656164204E2E00F0
:102B08003A200020202054616E6B204C6576656C5D
:102B18003A002500202020526566696C6C696E6752
:102B28003A204F464600543A30303A303000537419
:102B38006174653A0053544F50200046494C4C008C
:0E2B480046494C4C200053544F50006B670020
:00000001FF
