:100000000C9462000C948A000C948A000C948A0070
:100010000C948A000C948A000C948A000C948A0038
:100020000C948A000C948A000C948A000C948A0028
:100030000C948A000C948A000C948A000C948A0018
:100040000C947E030C948A000C948A000C948A0011
:100050000C948A000C948A000C948A000C948A00F8
:100060000C94C8030C948A000000000023002600B2
:10007000290000000008000201000003040700003E
:1000800000000000000000000000250028002B00F8
:1000900000000000240027002A00040404040404D3
:1000A0000404020202020202030303030303010227
:1000B00004081020408001020408102001020408F6
:1000C00010203B0511241FBECFEFD8E0DEBFCDBF0F
:1000D00011E0A0E0B1E0E6E9F7E102C005900D9281
:1000E000A438B107D9F722E0A4E8B1E001C01D921D
:1000F000A73AB207E1F710E0C2E6D0E004C02197CA
:10010000FE010E947409C136D107C9F70E9450064A
:100110000C94C90B0C940000E0919702F0919802A6
:100120000190F081E02D682F87E992E0099490E03A
:10013000FC01EE58FF4F3491FC01E255FF4F249132
:10014000FC01E656FF4FE491EE2309F43BC0332354
:1001500039F1333091F038F43130A9F0323001F513
:1001600084B58F7D12C0373091F03830A1F0343033
:10017000B9F4809180008F7D03C0809180008F77DB
:10018000809380000DC084B58F7784BD09C08091B5
:10019000B0008F7703C08091B0008F7D8093B00056
:1001A000F0E0EE0FFF1FEA57FF4FA591B4918FB714
:1001B000F894EC91611103C020952E2301C02E2BE1
:1001C0002C938FBF08953FB7F89480911D029091B2
:1001D0001E02A0911F02B091200226B5A89B05C067
:1001E0002F3F19F00196A11DB11D3FBFBA2FA92FB6
:1001F000982F8827820F911DA11DB11DBC01CD0133
:1002000042E0660F771F881F991F4A95D1F708951E
:100210008F929F92AF92BF92CF92DF92EF92FF9216
:100220006B017C010E94E3004B015C01C114D1040D
:10023000E104F104F1F00E94E300DC01CB01881934
:100240009909AA09BB09883E9340A105B10570F33D
:1002500021E0C21AD108E108F10888EE880E83E097
:10026000981EA11CB11CC114D104E104F10419F7BA
:10027000DDCFFF90EF90DF90CF90BF90AF909F9039
:100280008F900895CF92DF92EF92FF920F931F937A
:10029000CF93DF936C017A018B01C0E0D0E0CE15E3
:1002A000DF0589F0D8016D918D01D601ED91FC91AA
:1002B0000190F081E02DC6010995892B11F47E0192
:1002C00002C02196ECCFC701DF91CF911F910F9112
:1002D000FF90EF90DF90CF900895089581E090E037
:1002E0003091170220911602321710F480E090E04E
:1002F0009195819591090895809117029091160228
:10030000891730F48F5F8093170280E090E00895A2
:100310008FEF9FEF08958091160290E020911702D1
:10032000821B9109089585ED8093BC008091BC00EB
:1003300084FDFCCF1092130208954091A601262F50
:1003400030E0240F311D21323105DCF420911302FD
:100350002430C9F4FC0180E090E0861758F4309115
:10036000A6012191DC01AC57BE4FA30FB11D2C9308
:100370000196F3CF8091A601680F6093A60180E0FB
:10038000089581E0089582E00895CF92DF92EF9280
:10039000FF920F931F93CF93DF937C01262F972F0C
:1003A0008A018091EF01882391F0C62FD72F6E012B
:1003B000C40ED51ECC15DD0571F06991D701ED9104
:1003C000FC910190F081E02DC7010995F3CF642FD6
:1003D000822F0E949D01C801DF91CF911F910F9143
:1003E000FF90EF90DF90CF900895CF93DF931F920F
:1003F000CDB7DEB769832091EF012223D1F02091A0
:100400001402203240F021E030E0FC0133832283EB
:1004100080E090E015C080911502E82FF0E0E051F7
:10042000FE4F998190838F5F809315028093140211
:1004300005C061E0CE0101960E949D0181E090E03F
:100440000F90DF91CF910895CF93FC01C48121E0FB
:100450002093EF01C0931002109215021092140223
:100460008385682B81E292E00E94F501809114025D
:10047000813208F046C0909113029111FCCF92E0B6
:100480009093130291E0909312029FEF9093EE01EC
:100490001092ED018093EC01A0EFB1E02CEC31E083
:1004A000F9019E2F921B981718F49D919193F9CF03
:1004B0001092CB018091CB01CC0FC82BC093CB0104
:1004C00080911102813061F4109211028091CB0170
:1004D0008093BB008091BC0083FDF8CF85EC01C008
:1004E00085EE8093BC00809113028230E1F380910D
:1004F000EE018F3F31F08091EE01803211F080915A
:10050000EE0110921502109214021092EF01CF9199
:1005100008950F931F93CF938C01C62F0E9424023E
:100520006C2F6460C8010E9424026C2F6B7FC8018D
:100530000E94240283EC90E00197F1F7CF911F9184
:100540000F910895FF920F931F93CF93DF931F9204
:10055000CDB7DEB78C01F62E962F907F692F642BD6
:10056000C80149830E94890280E1F89EB0011124EC
:100570004981642BC8010F90DF91CF911F910F919A
:10058000FF900C948902CF93DF93CDB7DEB7289705
:100590000FB6F894DEBF0FBECDBF28E0E0E0F1E07B
:1005A000DE01119601900D922A95E1F720919F02AC
:1005B000261710F46FEF620FFE013196E60FF11D62
:1005C000E60FF11D9081682F690F606840E087E9B0
:1005D00092E028960FB6F894DEBF0FBECDBFDF9134
:1005E000CF910C94A20241E00E94A20281E090E02F
:1005F0000895009769F0FC0101900020E9F7319718
:10060000AF01481B590BBC0187E992E00C944201F1
:1006100080E090E008958F929F92AF92BF920F93E7
:100620001F93CF93DF93CDB7DEB7A1970FB6F894A2
:10063000DEBF0FBECDBF19A2423008F44AE08E01E2
:100640000F5D1F4F842E912CA12CB12CA50194017C
:100650000E943E09E62FB901CA0101501109EA3092
:1006600014F4E05D01C0E95CD801EC93232B242B4A
:10067000252B61F7C8010E94F902A1960FB6F894E4
:10068000DEBF0FBECDBFDF91CF911F910F91BF9005
:10069000AF909F908F9008950C94F902CF92DF92C3
:1006A000EF92FF92CF93DF936C01990FEE08FF0852
:1006B000F7FE17C08DE20E948C00EC0166277727B9
:1006C000CB016C197D098E099F094AE00E940B033A
:1006D0008C0F9D1FDF91CF91FF90EF90DF90CF9017
:1006E00008954AE0C701B601DF91CF91FF90EF90E6
:1006F000DF90CF900C940B030E94BD0B1F920F92C2
:100700000FB60F9211242F933F938F939F93AF9324
:10071000BF938091190290911A02A0911B02B0918F
:100720001C023091180223E0230F2D3720F401968C
:10073000A11DB11D05C026E8230F0296A11DB11D04
:10074000209318028093190290931A02A0931B021F
:10075000B0931C0280911D0290911E02A0911F0275
:10076000B09120020196A11DB11D80931D029093AE
:100770001E02A0931F02B0932002BF91AF919F91E0
:100780008F913F912F910F900FBE0F901F90189552
:100790001F920F920FB60F9211242F933F934F93F6
:1007A0005F936F937F938F939F93AF93BF93EF93D9
:1007B000FF938091B900887F803609F49CC068F56A
:1007C000883209F45BC090F4803109F454C038F4E5
:1007D000882309F4F6C0883009F44DC0F6C088318A
:1007E00009F44CC0803209F45DC0EFC0803409F4D4
:1007F00068C048F4803309F455C0883309F0E5C077
:100800008093EE01D8C0803509F44FC0883509F4D3
:100810005DC0883409F0D9C0D6C0883909F4C7C092
:10082000A8F4883709F467C038F4883609F463C03F
:10083000803709F460C0C9C0883809F4B8C080396D
:1008400009F45FC0803809F0C0C05BC0803B09F488
:1008500086C038F4803A09F466C0883A09F47FC04B
:10086000B4C0803C09F4A7C0883C09F4A4C0883B0C
:1008700009F48AC0AAC08091CB0110C09091ED010B
:100880008091EC01981770F5E091ED0181E08E0FF9
:100890008093ED01F0E0E453FE4F80818093BB0034
:1008A00085EC86C08093EE018EC0E091ED0181E081
:1008B0008E0F8093ED018091BB00F0E0E453FE4F7A
:1008C00080839091ED018091EC016EC0E091ED018B
:1008D00081E08E0F8093ED018091BB00F0E0E45346
:1008E000FE4F80838091120281116DC081E0809360
:1008F000110284EA61C083E0809313021092CA015E
:10090000CFCF8091CA01803208F051C0E091CA0176
:1009100081E08E0F8093CA018091BB00F0E0E65524
:10092000FE4F8083BDCF85EC8093BC0010921302F4
:100930008091CA01803230F4E091CA01F0E0E655BE
:10094000FE4F10826091CA0170E0E091A801F09121
:10095000A9018AEA91E009951092CA0136C084E0A3
:10096000809313021092A7011092A601E091A401B6
:10097000F091A50109958091A601811105C081E042
:100980008093A60110928401E091A70181E08E0F6F
:100990008093A701F0E0EC57FE4F80818093BB006D
:1009A0009091A7018091A601981708F479CF85E866
:1009B0008093BC000AC085EC8093BC0010921302A7
:1009C00004C01092EE010E949301FF91EF91BF913C
:1009D000AF919F918F917F916F915F914F913F91D7
:1009E0002F910F900FBE0F901F901895CF92DF920E
:1009F000EF92FF920F931F93E82FF92F05C001503C
:100A000011092109310961F1908196239417B9F3F5
:100A100005C0015011092109310911F19081962376
:100A20009413F7CFC12CD12CE12CF12C0AC08FEFFD
:100A3000C81AD80AE80AF80A0C151D052E053F0544
:100A400079F080818623841791F36C2D7D2D8E2D76
:100A50009F2D1F910F91FF90EF90DF90CF90089501
:100A600060E070E080E090E01F910F91FF90EF90C8
:100A7000DF90CF900895CF93DF93109224021092CD
:100A8000230288EE93E0A0E0B0E0809325029093EB
:100A90002602A0932702B09328028CE091E0909365
:100AA00022028093210282E090E09093A40280933E
:100AB000A302E0EBF0E02491ECE9F0E084918823DC
:100AC00099F090E0880F991FFC01E057FF4FA59126
:100AD000B491FC01EA57FF4F859194918FB7F89438
:100AE000EC91E22BEC938FBF83E090E09093A60211
:100AF0008093A502E1EBF0E02491EDE9F0E0849130
:100B00008823C1F090E0880F991FFC01E057FF4F48
:100B1000C591D491FC01EA57FF4FA591B4919FB7BD
:100B2000F8943881822F809583238883EC91E22B7F
:100B3000EC939FBF10929A02109299028CE191E07F
:100B4000909398028093970287E280939B0284E1BE
:100B50008093A00284E08093A1021092A20283EA13
:100B600092E090936A02809369021092940210922C
:100B700093021092960210929502109253021092D4
:100B80005402109255021092560229E632E0309338
:100B9000660220936502909364028093630280E072
:100BA00090E0A0EAB2E48093570290935802A09399
:100BB0005902B0935A0280E090E0A0E2B1E4809341
:100BC0005B0290935C02A0935D02B0935E0280E0B2
:100BD00090E0ACE8B2E480935F0290936002A0934F
:100BE0006102B093620287E992E090936802809379
:100BF000670285E090E09093520280935102109238
:100C00005002109248021092490210924A02109229
:100C10004B0210924402109245021092460210922A
:100C2000470210924D0210924C0210924F02109205
:100C30004E0280E592E0909337028093360260E2A4
:100C400071E08DE292E00E94C20B1092320210928B
:100C50003302109234021092350284E492E09093B1
:100C600039028093380283E592E090933B028093AF
:100C70003A0210923C0210923D0210923E021092F3
:100C80003F028AE097EDA3E2BEE380934002909397
:100C90004102A0934202B0934302DF91CF910895A5
:100CA000789484B5826084BD84B5816084BD85B547
:100CB000826085BD85B5816085BD80916E00816053
:100CC00080936E00109281008091810082608093F9
:100CD00081008091810081608093810080918000FB
:100CE0008160809380008091B10084608093B10026
:100CF0008091B00081608093B00080917A00846020
:100D000080937A0080917A00826080937A0080914B
:100D10007A00816080937A0080917A008068809365
:100D20007A001092C10010921702109216021092CF
:100D30001502109214021092130281E080931202A5
:100D40001092110261E082E10E94970061E083E16C
:100D50000E9497008091B9008E7F8093B9008091A6
:100D6000B9008D7F8093B90088E48093B80085E452
:100D70008093BC0010929C028091A102823018F0F6
:100D800098E090939C0280939F0262E370E080E081
:100D900090E00E9408016091A20287E992E00E941F
:100DA000240268EE73E080E090E00E94080160E3B6
:100DB00087E992E00E948902CBE4D6E4CE01019754
:100DC000F1F760E387E992E00E9489022197F1F749
:100DD00060E387E992E00E94890283E592E001974F
:100DE000F1F760E287E992E00E94890260919C023B
:100DF000606240E087E992E00E94A20284E0809372
:100E00009D0240E06CE087E992E00E94A20240E08F
:100E100061E087E992E00E94A202CBE3DFE1CE012C
:100E20000197F1F782E080939E0240E066E087E957
:100E300092E00E94A20240E062E087E992E00E9414
:100E4000A2022197F1F788E08093A20260E087E98F
:100E500092E00E94240285E291E00E944C034BE65E
:100E6000E42E42E0F42EC0E0D0E053E2C52ED12CB7
:100E70000091690210916A0261E0F80180810E948C
:100E80009700C6010197F1F760E0F80180810E94A8
:100E90009700A0909302B0909402E0916902F091C3
:100EA0006A02228133813327F901E255FF4F6491B1
:100EB000F901E656FF4FE491F0E0EE0FFF1FE8590D
:100EC000FF4F8591949100E412E42FE030E0462F2B
:100ED0000E94F604611571058105910549F0DC0158
:100EE000CB010196A11DB11DBC01CD019F7003C0B6
:100EF00060E070E0CB018501000F111F05591D4F07
:100F00000E94960A26E933E44BE85CE30E944B0B0F
:100F10000E945E0AF8017183608380919302909130
:100F200094020196909394028093930261E080E092
:100F30000E94C30287E391E00E944C03CE010E940D
:100F40004E0383E491E00E944C03F701819191915B
:100F50007F010E944E032196C431D10509F088CF4C
:100F6000C0916502D0916602FE0132969E01265D17
:100F70003F4FDF0180E090E04D915D91840F951F20
:100F8000A217B307C9F764E170E00E942A09AB0118
:100F90007DA76CA71BA61AA660E070E083E690E030
:100FA000C191D191DE01A41BB50BA817B90714F4A8
:100FB000BE01CD01E217F30799F7072E000C880B4D
:100FC000990B0E94960A9B01AC01609157027091A7
:100FD00058028091590290915A020E947A090E9407
:100FE0005E0A072E000C880B990B0E94960A20912E
:100FF0005F023091600240916102509162020E9452
:10100000EC0920E030E048EC52E40E944B0B609386
:10101000530270935402809355029093560262E0FB
:1010200080E00E94C30286E491E00E944C0360913C
:1010300053027091540280915502909156020E9481
:101040005E0ACB010E944E0385E591E00E944C03AD
:1010500063E080E00E94C30287E591E00E944C03B8
:1010600064EF71E080E090E00E94080140E061E000
:1010700087E992E00E94A2028BE39FE10197F1F7DA
:1010800060E080E00E94C30286E491E00E944C038D
:1010900060915302709154028091550290915602D2
:1010A0000E945E0ACB010E944E0385E591E00E94FA
:1010B0004C0361E080E00E94C30289E691E00E9457
:1010C0004C0362E080E00E94C30281E791E00E944D
:1010D0004C0362E086E00E94C3028DE292E00E942F
:1010E0004C0363E08DE00E94C302C0903C02D090AC
:1010F0003D02E0903E02F0903F02A7019601C70139
:10110000B6010E94B80B882319F088E791E01AC055
:1011100046015701E894B7F82FEF3FEF4FE75FE73D
:10112000C501B4010E94B80B81110FC02FEF3FEF32
:101130004FE75FE7C501B4010E94E70918162CF4D8
:101140008CE791E00E94F90272C02FEF3FEF4FE76A
:101150005FE4C701B6010E94460B18161CF480E834
:1011600091E0F0CF2FEF3FEF4FE75FECC701B60103
:101170000E94E70987FDF3CF20E030E0A901C70115
:10118000B6010E94E70987FF07C08DE20E948C002C
:10119000F7FAF094F7F8F0942AE037ED43EA5BE3CE
:1011A000C701B6010E947B094B015C010E94650AE0
:1011B0006B017C010E94940A9B01AC01C501B40142
:1011C0000E947A094B015C014AE0C701B6010E9406
:1011D0000B038EE20E948C0020E030E040E251E4FC
:1011E000C501B4010E944B0B4B015C010E94650AD2
:1011F0006B01E12CF12C4AE0C701B6010E940B0300
:10120000C701B6010E94940A9B01AC01C501B4015B
:101210000E947A0920E030E040E251E40E944B0B4A
:101220000E94650A80E090E04AE00E940B038091F2
:101230005002882341F060E0809151020E949700A3
:1012400081E080935002C0E0D0E02097F1F30E944B
:101250000000FBCF97FB072E16F4009407D077FD14
:1012600009D00E94600907FC05D03EF49095819555
:101270009F4F0895709561957F4F0895A1E21A2EB2
:10128000AA1BBB1BFD010DC0AA1FBB1FEE1FFF1F2A
:10129000A217B307E407F50720F0A21BB30BE40B7A
:1012A000F50B661F771F881F991F1A9469F76095C1
:1012B0007095809590959B01AC01BD01CF0108957B
:1012C000AA1BBB1B51E107C0AA1FBB1FA617B7076C
:1012D00010F0A61BB70B881F991F5A95A9F7809588
:1012E0009095BC01CD010895EE0FFF1F0590F4917C
:1012F000E02D09945058BB27AA270E9492090C940C
:101300000C0B0E94FE0A38F00E94050B20F039F405
:101310009F3F19F426F40C94FB0A0EF4E095E7FBCA
:101320000C94F50AE92F0E941D0B58F3BA176207B7
:1013300073078407950720F079F4A6F50C943F0B0A
:101340000EF4E0950B2EBA2FA02D0B01B9019001E0
:101350000C01CA01A0011124FF27591B99F0593F24
:1013600050F4503E68F11A16F040A22F232F342F6C
:101370004427585FF3CF469537952795A795F040BA
:101380005395C9F77EF41F16BA0B620B730B840BCF
:10139000BAF09150A1F0FF0FBB1F661F771F881F87
:1013A000C2F70EC0BA0F621F731F841F48F48795DF
:1013B00077956795B795F7959E3F08F0B0CF9395D1
:1013C000880F08F09927EE0F9795879508950E944A
:1013D000D10A08F481E008950E94000A0C940C0BD5
:1013E0000E94050B58F00E94FE0A40F029F45F3F6E
:1013F00029F00C94F50A51110C94400B0C94FB0A43
:101400000E941D0B68F39923B1F3552391F3951BAB
:10141000550BBB27AA2762177307840738F09F5F15
:101420005F4F220F331F441FAA1FA9F335D00E2E82
:101430003AF0E0E832D091505040E695001CCAF7EF
:101440002BD0FE2F29D0660F771F881FBB1F2617B2
:1014500037074807AB07B0E809F0BB0B802DBF0189
:10146000FF2793585F4F3AF09E3F510578F00C9458
:10147000F50A0C94400B5F3FE4F3983ED4F3869555
:1014800077956795B795F7959F5FC9F7880F911D79
:101490009695879597F90895E1E0660F771F881F65
:1014A000BB1F621773078407BA0720F0621B730B18
:1014B000840BBA0BEE1F88F7E09508950E94650A29
:1014C0006894B1110C94400B08950E94250B88F08C
:1014D0009F5798F0B92F9927B751B0F0E1F0660FF8
:1014E000771F881F991F1AF0BA95C9F714C0B13039
:1014F00091F00E943F0BB1E008950C943F0B672FD1
:10150000782F8827B85F39F0B93FCCF38695779567
:101510006795B395D9F73EF4909580957095619550
:101520007F4F8F4F9F4F0895E89409C097FB3EF47B
:1015300090958095709561957F4F8F4F9F4F992320
:10154000A9F0F92F96E9BB279395F695879577959E
:101550006795B795F111F8CFFAF4BB0F11F460FF5E
:101560001BC06F5F7F4F8F4F9F4F16C0882311F0B6
:1015700096E911C0772321F09EE8872F762F05C0CA
:10158000662371F096E8862F70E060E02AF09A9565
:10159000660F771F881FDAF7880F9695879597F95A
:1015A0000895990F0008550FAA0BE0E8FEEF1616F4
:1015B0001706E807F907C0F012161306E407F50747
:1015C00098F0621B730B840B950B39F40A2661F0BB
:1015D000232B242B252B21F408950A2609F4A1405E
:1015E000A6958FEF811D811D089597F99F6780E86B
:1015F00070E060E008959FEF80EC089500240A9465
:101600001616170618060906089500240A941216DD
:101610001306140605060895092E0394000C11F410
:10162000882352F0BB0F40F4BF2B11F460FF04C0BD
:101630006F5F7F4F8F4F9F4F089557FD9058440F16
:10164000551F59F05F3F71F04795880F97FB991F21
:1016500061F09F3F79F087950895121613061406DE
:10166000551FF2CF4695F1DF08C01616170618066B
:10167000991FF1CF86957105610508940895E89446
:10168000BB2766277727CB0197F908950E94D10AD7
:1016900008F48FEF08950E945E0B0C940C0B0E94CF
:1016A000FE0A38F00E94050B20F0952311F00C94EF
:1016B000F50A0C94FB0A11240C94400B0E941D0B9C
:1016C00070F3959FC1F3950F50E0551F629FF00195
:1016D000729FBB27F00DB11D639FAA27F00DB11DAE
:1016E000AA1F649F6627B00DA11D661F829F222737
:1016F000B00DA11D621F739FB00DA11D621F839FBE
:10170000A00D611D221F749F3327A00D611D231F93
:10171000849F600D211D822F762F6A2F11249F57E1
:1017200050409AF0F1F088234AF0EE0FFF1FBB1FE4
:10173000661F771F881F91505040A9F79E3F5105A3
:1017400080F00C94F50A0C94400B5F3FE4F3983E54
:10175000D4F3869577956795B795F795E7959F5F4D
:10176000C1F7FE2B880F911D9695879597F90895DF
:101770000E94D10A880B990B089581E090E0F894BB
:101780000C94C90BFB01DC0101900D920020E1F7E4
:061790000895F894FFCF5C
:10179600000040001400540000000000F501C501DF
:1017A6008B017C016E016D0100000000F302420115
:1017B60053544F5000202020426F6F74696E67208B
:1017C60053797374656D0020202020526561642072
:1017D6004E2E003A200020202054616E6B204C656E
:1017E60076656C3A002500202020526566696C6C8F
:1017F600696E673A204F464600543A30303A3030E8
:101806000053746174653A006E616E00696E66001D
:041816006F76660083
:00000001FF
